:020000040000FA
:0400000052EF00F0CB
:020004000000FA
:0A000600966A000E8D6E000E016E6A
:10001000FA0E006E3EEC00F096683EEC00F03EEC0E
:1000200000F03EEC00F0120025EC00F025EC00F0B2
:100030002EEC00F02EEC00F025EC00F025EC00F0AA
:100040002EEC00F02EEC00F01200966A000E8D6E81
:10005000190E206E3BEC00F096681200966A000EB6
:100060008D6EFF0E206E3BEC00F0A00E206E3BEC80
:1000700000F096681200202EFED71200000E000637
:0200800012006C
:0E008200383D3D3D3D3D3D3D3D3D3D3D3D3D1F
:100090003D44383D3D3D3D3D3D3D3D3D3D3D3D3D8E
:0400A0003D440A00D1
:0C00A4007F9C7F8E56EF00F003EC00F014
:0600B00014EC00F0FBD788
:020000040030CA
:010000001DE2
:00000001FF
