:020000040000FA
:04000000A7EF00F076
:020004000000FA
:0A000600966A000E8D6E000E016E6A
:10001000FA0E006EA2EC00F09668A2EC00F0A2ECE2
:1000200000F0A2EC00F0120072EC00F072EC00F0B4
:100030007FEC00F07FEC00F072EC00F072EC00F06E
:100040007FEC00F07FEC00F012007FEC00F07FEC22
:1000500000F072EC00F072EC00F07FEC00F07FEC4E
:1000600000F072EC00F072EC00F012007FEC00F097
:100070007FEC00F072EC00F07FEC00F07FEC00F021
:100080007FEC00F072EC00F07FEC00F012007FECEF
:1000900000F072EC00F072EC00F072EC00F072EC28
:1000A00000F072EC00F07FEC00F072EC00F0120057
:1000B0006BEC00F06BEC00F06BEC00F06BEC00F024
:1000C0006BEC00F06BEC00F06BEC00F06BEC00F014
:1000D0006BEC00F012008CEC00F0320E206E9FEC06
:1000E00000F01200966A000E8D6E010E206E9FECDD
:1000F00000F09668330E206E9FEC00F01200966AB6
:10010000000E8D6E330E206E9FEC00F09668010E8F
:10011000206E9FEC00F01200966A000E8D6E010EAC
:10012000206E9FEC00F09668010E206E9FEC00F0B0
:1001300084CFDDFF330E206E9FEC00F01200202EE6
:0E014000FED71200000E0006015AFDE212006A
:02014E007F9C94
:100150007F8EABEF00F003EC00F025EC00F036EC06
:1001600000F003EC00F025EC00F047EC00F058EC58
:0801700000F020EE17F0FFD7AC
:08017800383D3D3D3D3D3D3D9C
:100180003D3D3D3D3D3D3D44383D3D3D3D3D3D3D9D
:0A0190003D3D3D3D3D3D3D440A006C
:020000040030CA
:010000001DE2
:00000001FF
