:020000040000FA
:0400000015EF02F006
:020004000000FA
:0A000600966A000E8D6E000E016E6A
:10001000FA0E006E0AEC01F096680AEC01F00AECA8
:1000200001F00AEC01F0120003EC00F08BEC00F0A0
:100030009CEC00F003EC00F08BEC00F0ADEC00F079
:10004000BEEC00F0120003EC00F08BEC00F0ADEC25
:1000500000F0BEEC00F0BEEC00F0BEEC00F0BEEC38
:1000600000F0120003EC00F08BEC00F058EC00F014
:10007000120003EC00F08BEC00F069EC00F01200D1
:1000800003EC00F08BEC00F047EC00F01200E4EC25
:1000900000F0D7EC00F0D7EC00F0D7EC00F0E4EC87
:1000A00000F0E4EC00F0D7EC00F0E4EC00F012001B
:1000B000E4EC00F0E4EC00F0E4EC00F0D7EC00F04D
:1000C000E4EC00F0E4EC00F0D7EC00F0E4EC00F03D
:1000D0001200E4EC00F0E4EC00F0E4EC00F0D7EC0B
:1000E00000F0D7EC00F0D7EC00F0E4EC00F0D7EC37
:1000F00000F01200D7EC00F0D7EC00F0E4EC00F0D8
:10010000E4EC00F0D7EC00F0D7EC00F0E4EC00F009
:10011000E4EC00F01200E4EC00F0E4EC00F0D7ECCA
:1001200000F0D7EC00F0E4EC00F0E4EC00F0D7ECE9
:1001300000F0D7EC00F01200E4EC00F0E4EC00F08A
:10014000D7EC00F0E4EC00F0E4EC00F0E4EC00F0BC
:10015000D7EC00F0E4EC00F01200E4EC00F0D7EC97
:1001600000F0D7EC00F0D7EC00F0D7EC00F0D7ECC3
:1001700000F0E4EC00F0D7EC00F01200D0EC00F05E
:10018000D0EC00F0D0EC00F0D0EC00F0D0EC00F0BF
:10019000D0EC00F0D0EC00F0D0EC00F00000120049
:1001A000F1EC00F0320E206E07EC01F01200966ABE
:1001B000000E8D6E010E206E07EC01F09668330E76
:1001C000206E07EC01F01200966A000E8D6E330E61
:1001D000206E07EC01F09668010E206E07EC01F02E
:1001E0001200966A000E8D6E010E206E07EC01F073
:1001F00096689568010E206E07EC01F0D89083B0E8
:10020000D8803A32330E206E07EC01F01200202E17
:0E021000FED71200000E0006015AFDE2120099
:02021E008A6AEA
:10022000C00E936E280EFFEC01F0300ECEEC01F004
:100230000A0E06EC02F0280ECEEC01F00A0E06ECD7
:1002400002F0280ECEEC01F00A0E06EC02F00F0EC2
:10025000CEEC01F00A0E06EC02F0010ECEEC01F03D
:10026000020EFFEC01F0060ECEEC01F00A0E06ECD9
:1002700002F01200106A116A206A216A306A316A3B
:10028000406A416A556A566A506A516A410E106E58
:100290008A0E116E000E206ED86A126A3A323AC087
:1002A00021F0D8B0128021501102F3CF31F0F4CFF9
:1002B00030F01002F3CF41F0F4CF40F020501102A3
:1002C000F3CF51F0F4CF50F01002F3CF56F0F4CF4B
:1002D00055F031C013F0D86A305041245124156EC6
:1002E000405050205620116E55C010F010500F0B8A
:1002F000336E89EC01F010500F0B346E89EC01F075
:1003000010500F0B356E89EC01F010500F0B366E4C
:1003100012000A0E1302F3CF31F0F4CF30F01502C1
:10032000F3CF41F0F4CF40F01102F3CF51F0F4CF0E
:1003300050F031C013F0D86A30504120156E405053
:100340005120116E50C010F0120012B0BDEC01F03F
:10035000120012B01200BDEC01F01200116E113843
:10036000B3EC01F011500F0B0D6E0A0E0D60070F6C
:10037000260F0D24DCEC01F01200146E100E0E6E30
:10038000136EDE50DCEC01F0142EFBD71200010ED0
:10039000CEEC01F0020EFFEC01F012000D6E0D38F4
:1003A0000F0B8A6E8A98EDEC01F00D500F0B8A6EE0
:1003B0008A98EDEC01F012000D6E0D380F0B8A6E6D
:1003C0008A88EDEC01F00D500F0B8A6E8A88EDECF7
:1003D00001F00A0E06EC02F012000000000000001E
:1003E000000000000000000000008A8A00000000F9
:1003F000000000000000000000008A9A12000C6E4D
:10040000FA0E06EC02F00C2EFBD712000A6E0A3A26
:100410000F0E0A140B6EF00E0A1610EC02F012000A
:0A042000000E0A060B5AFDE212005E
:06042A007F9C0FEC01F0C5
:100430007F8E1BEF02F014EC00F020EE17F000EEC0
:100440003AF0C7EC01F03AEC01F035C008F036C0E4
:1004500009F004EE00F0000EF86E040EF76EE00EE8
:10046000F66E050E066E0900F5CFEEFF062EFBD7E1
:10047000040E24EE00F0BDEC01F0300E0824DCEC9C
:1004800001F0300E0924DCEC01F004EE00F0000E67
:10049000F86E040EF76EEC0EF66E050E066E090091
:1004A000F5CFEEFF062EFBD7040E24EE00F0A9ECEC
:1004B00001F004EE00F0000EF86E040EF76EE60E8A
:1004C000F66E050E066E0900F5CFEEFF062EFBD781
:1004D000040E24EE00F0A5EC01F01BEF02F0FFD7B4
:1004E00054203D200A002E35B0430A002E30B04380
:0204F0000A0000
:020000040030CA
:010000001DE2
:00000001FF
