:020000040000FA
:04000000A0EF01F07C
:020004000000FA
:0A0006008A6AC00E936E280EE0EC2B
:1000100000F0300EAFEC00F00A0EE7EC00F0280E16
:10002000AFEC00F00A0EE7EC00F0280EAFEC00F0A9
:100030000A0EE7EC00F00F0EAFEC00F00A0EE7EC52
:1000400000F0010EAFEC00F0020EE0EC00F0060E46
:10005000AFEC00F00A0EE7EC00F01200106A116A33
:10006000206A216A306A316A406A416A556A566A72
:10007000506A516A410E106E8A0E116E3AC021F01C
:1000800021501102F3CF31F0F4CF30F01002F3CF52
:1000900041F0F4CF40F020501102F3CF51F0F4CFF3
:1000A00050F01002F3CF56F0F4CF55F031C013F0FA
:1000B000D86A305041205120126E405050205620B6
:1000C000116E55C010F010500F0B336E76EC00F02F
:1000D00010500F0B346E76EC00F010500F0B356E95
:1000E00076EC00F010500F0B366E12000A0E130261
:1000F000F3CF31F0F4CF30F01202F3CF41F0F4CF70
:1001000040F01102F3CF51F0F4CF50F031C013F0B2
:10011000D86A30504120126E40505120116E50C0AC
:1001200010F012000F6E0F3897EC00F00F500F0B0D
:100130000B6E0A0E0B60070F260F0B24BDEC00F0B0
:100140001200116E100E0C6E106EDE50BDEC00F041
:10015000112EFBD71200010EAFEC00F012000B6E57
:100160000B380F0B8A6E8A98CEEC00F00B500F0BF9
:100170008A6E8A98CEEC00F012000B6E0B380F0BD3
:100180008A6E8A88CEEC00F00B500F0B8A6E8A883C
:10019000CEEC00F00A0EE7EC00F0120000000000C8
:1001A0000000000000000000000000008A8A00003B
:1001B0000000000000000000000000008A9A120009
:1001C0000A6EFA0EE7EC00F00A2EFBD71200086E5A
:1001D000083A0F0E0814096EF00E0816F1EC00F044
:0C01E0001200000E0806095AFDE2120091
:0401EC00966A000E01
:1001F0008D6E000E016EFA0E006E9BEC01F096689B
:100200009BEC01F09BEC01F09BEC01F0120068EC20
:1002100001F068EC01F075EC01F075EC01F068ECB0
:1002200001F068EC01F075EC01F075EC01F01200E2
:1002300075EC01F075EC01F068EC01F068EC01F090
:1002400075EC01F075EC01F068EC01F068EC01F080
:10025000120075EC01F075EC01F068EC01F075EC42
:1002600001F075EC01F075EC01F068EC01F075EC53
:1002700001F0120075EC01F068EC01F068EC01F09F
:1002800068EC01F068EC01F068EC01F075EC01F04D
:1002900068EC01F0120061EC01F061EC01F061EC3E
:1002A00001F061EC01F061EC01F061EC01F061EC56
:1002B00001F061EC01F000001200EECFD8FF303603
:1002C000120082EC01F0320E206E98EC01F0120068
:1002D000966A000E8D6E010E206E98EC01F0966805
:1002E000330E206E98EC01F01200966A000E8D6EAF
:1002F000330E206E98EC01F09668010E206E98EC9B
:1003000001F01200966A000E8D6E010E206E98ECC0
:1003100001F096689568010E206E98EC01F0D89077
:1003200083B0D8803A32330E206E98EC01F0120080
:10033000202EFED71200000E0006015AFDE2120028
:100340007F9C7F8EA4EF01F0F6EC00F018EC01F03A
:1003500029EC01F0F6EC00F018EC01F03AEC01F0B9
:100360004BEC01F020EE17F000EE3AF02EEC00F02E
:02037000FFD7B5
:0403720054203D0ACC
:020000040030CA
:010000001DE2
:00000001FF
