:020000040000FA
:04000000C1EF01F05B
:020004000000FA
:0A0006008A6AC00E936E280EF2EC19
:1000100000F0300EC1EC00F00A0EF9EC00F0280EF2
:10002000C1EC00F00A0EF9EC00F0280EC1EC00F073
:100030000A0EF9EC00F00F0EC1EC00F00A0EF9EC1C
:1000400000F0010EC1EC00F0020EF2EC00F0060E22
:10005000C1EC00F00A0EF9EC00F01200106A116A0F
:10006000206A216A306A316A406A416A556A566A72
:10007000506A516A410E106E8A0E116E000E206E8B
:10008000D86A3A323AC021F0D8B012802150110219
:10009000F3CF31F0F4CF30F01002F3CF41F0F4CFD2
:1000A00040F020501102F3CF51F0F4CF50F0100285
:1000B000F3CF56F0F4CF55F031C013F0D86A30507A
:1000C00041245124126E405050245624116E55C0C4
:1000D00010F010500F0B336E7CEC00F010500F0B33
:1000E000346E7CEC00F010500F0B356E7CEC00F0A1
:1000F00010500F0B366E12000A0E1302F3CF31F0C0
:10010000F4CF30F01202F3CF41F0F4CF40F01102FF
:10011000F3CF51F0F4CF50F031C013F0D86A305023
:100120004124126E40505124116E50C010F0120044
:1001300012B0B0EC00F0120012B01200B0EC00F0FF
:100140001200116E1138A6EC00F011500F0B0D6E5D
:100150000A0E0D60070F260F0D24CFEC00F01200E1
:10016000146E100E0E6E136EDE50CFEC00F0142ED7
:10017000FBD71200010EC1EC00F0020EF2EC00F011
:1001800012000D6E0D380F0B8A6E8A98E0EC00F0AD
:100190000D500F0B8A6E8A98E0EC00F012000D6E85
:1001A0000D380F0B8A6E8A88E0EC00F00D500F0BB3
:1001B0008A6E8A88E0EC00F00A0EF9EC00F012007A
:1001C000000000000000000000000000000000002F
:1001D0008A8A00000000000000000000000000000B
:1001E0008A9A12000C6EFA0EF9EC00F00C2EFBD776
:1001F00012000A6E0A3A0F0E0A140B6EF00E0A165F
:1002000003EC01F01200000E0A060B5AFDE2120088
:10021000966A000E8D6E000E016EFA0E006EBCEC3A
:1002200001F09668BCEC01F0BCEC01F0BCEC01F014
:10023000120008EC01F039EC01F04AEC01F008EC96
:1002400001F039EC01F05BEC01F06CEC01F0120014
:1002500089EC01F089EC01F096EC01F096EC01F0EC
:1002600089EC01F089EC01F096EC01F096EC01F0DC
:10027000120096EC01F096EC01F089EC01F089ECAB
:1002800001F096EC01F096EC01F089EC01F089ECBC
:1002900001F0120096EC01F096EC01F089EC01F00F
:1002A00096EC01F096EC01F096EC01F089EC01F08F
:1002B00096EC01F0120096EC01F089EC01F089EC6B
:1002C00001F089EC01F089EC01F089EC01F096EC89
:1002D00001F089EC01F0120082EC01F082EC01F0F7
:1002E00082EC01F082EC01F082EC01F082EC01F092
:1002F00082EC01F082EC01F000001200EECFD8FF9A
:1003000030361200A3EC01F0320E206EB9EC01F091
:100310001200966A000E8D6E010E206EB9EC01F08F
:100320009668330E206EB9EC01F01200966A000E4A
:100330008D6E330E206EB9EC01F09668010E206EC2
:10034000B9EC01F01200966A000E8D6E010E206E5F
:10035000B9EC01F096689568010E206EB9EC01F0D9
:10036000D89083B0D8803A32330E206EB9EC01F0C9
:100370001200202EFED71200000E0006015AFDE2E8
:02038000120069
:0E0382007F9C03EC00F07F8EC7EF01F019ECBA
:1003900001F020EE17F000EE3AF0BAEC00F02EEC8F
:1003A00000F035C008F036C009F004EE00F0000E91
:1003B000F86E040EF76E380EF66E050E066E090026
:1003C000F5CFEEFF062EFBD7040E24EE00F0B0ECC6
:1003D00000F0300E0824CFEC00F0300E0924CFECF2
:1003E00000F004EE00F0000EF86E040EF76E440EFE
:1003F000F66E050E066E0900F5CFEEFF062EFBD752
:10040000040E24EE00F09CEC00F004EE00F0000E70
:10041000F86E040EF76E3E0EF66E050E066E0900BF
:10042000F5CFEEFF062EFBD7040E24EE00F098EC7D
:0804300000F0C7EF01F0FFD757
:0804380054203D200A002E357E
:0A044000B0430A002E30B0430A005A
:020000040030CA
:010000001DE2
:00000001FF
