:020000040000FA
:04000000C2EF01F05A
:020004000000FA
:0A0006008A6AC00E936E280EF3EC18
:1000100000F0300EC2EC00F00A0EFAEC00F0280EF0
:10002000C2EC00F00A0EFAEC00F0280EC2EC00F070
:100030000A0EFAEC00F00F0EC2EC00F00A0EFAEC19
:1000400000F0010EC2EC00F0020EF3EC00F0060E20
:10005000C2EC00F00A0EFAEC00F01200106A116A0D
:10006000206A216A306A316A406A416A556A566A72
:10007000506A516A410E106E8A0E116E000E206E8B
:10008000D86A126A3A323AC021F0D8B012802150B0
:100090001102F3CF31F0F4CF30F01002F3CF41F082
:1000A000F4CF40F020501102F3CF51F0F4CF50F0D4
:1000B0001002F3CF56F0F4CF55F031C013F0D86AE8
:1000C000305041245124156E405050205620116E5E
:1000D00055C010F010500F0B336E7DEC00F0105037
:1000E0000F0B346E7DEC00F010500F0B356E7DEC75
:1000F00000F010500F0B366E12000A0E1302F3CFF1
:1001000031F0F4CF30F01502F3CF41F0F4CF40F0EE
:100110001102F3CF51F0F4CF50F031C013F0D86A90
:1001200030504120156E40505120116E50C010F0DB
:10013000120012B0B1EC00F0120012B01200B1ECDB
:1001400000F01200116E1138A7EC00F011500F0BE7
:100150000D6E0A0E0D60070F260F0D24D0EC00F077
:100160001200146E100E0E6E136EDE50D0EC00F006
:10017000142EFBD71200010EC2EC00F0020EF3ECBD
:1001800000F012000D6E0D380F0B8A6E8A98E1ECAC
:1001900000F00D500F0B8A6E8A98E1EC00F012000F
:1001A0000D6E0D380F0B8A6E8A88E1EC00F00D5051
:1001B0000F0B8A6E8A88E1EC00F00A0EFAEC00F070
:1001C000120000000000000000000000000000001D
:1001D00000008A8A0000000000000000000000000B
:1001E00000008A9A12000C6EFA0EFAEC00F00C2E47
:1001F000FBD712000A6E0A3A0F0E0A140B6EF00EAD
:100200000A1604EC01F01200000E0A060B5AFDE279
:020210001200DA
:0E021200966A000E8D6E000E016EFA0E006EE2
:10022000BDEC01F09668BDEC01F0BDEC01F0BDEC59
:1002300001F0120009EC01F03AEC01F04BEC01F096
:1002400009EC01F03AEC01F05CEC01F06DEC01F02E
:1002500012008AEC01F08AEC01F097EC01F097ECC7
:1002600001F08AEC01F08AEC01F097EC01F097ECD8
:1002700001F0120097EC01F097EC01F08AEC01F02C
:100280008AEC01F097EC01F097EC01F08AEC01F0B8
:100290008AEC01F0120097EC01F097EC01F08AEC87
:1002A00001F097EC01F097EC01F097EC01F08AEC8B
:1002B00001F097EC01F0120097EC01F08AEC01F0EC
:1002C0008AEC01F08AEC01F08AEC01F08AEC01F092
:1002D00097EC01F08AEC01F0120083EC01F083EC62
:1002E00001F083EC01F083EC01F083EC01F083EC8E
:1002F00001F083EC01F083EC01F000001200EECF7E
:10030000D8FF30361200A4EC01F0320E206EBAECA9
:1003100001F01200966A000E8D6E010E206EBAEC8E
:1003200001F09668330E206EBAEC01F01200966A66
:10033000000E8D6E330E206EBAEC01F09668010E41
:10034000206EBAEC01F01200966A000E8D6E010E5E
:10035000206EBAEC01F096689568010E206EBAEC3A
:1003600001F0D89083B0D8803A32330E206EBAECC8
:1003700001F01200202EFED71200000E0006015AD6
:04038000FDE2120088
:0C0384007F9C03EC00F07F8EC8EF01F0BE
:100390001AEC01F020EE17F000EE3AF0BBEC00F0A2
:1003A0002EEC00F035C008F036C009F004EE00F085
:1003B000000EF86E040EF76E3A0EF66E050E066E1F
:1003C0000900F5CFEEFF062EFBD7040E24EE00F059
:1003D000B1EC00F0300E0824D0EC00F0300E09240F
:1003E000D0EC00F004EE00F0000EF86E040EF76E94
:1003F000460EF66E050E066E0900F5CFEEFF062ED0
:10040000FBD7040E24EE00F09DEC00F004EE00F0AB
:10041000000EF86E040EF76E400EF66E050E066EB8
:100420000900F5CFEEFF062EFBD7040E24EE00F0F8
:0A04300099EC00F0C8EF01F0FFD7CF
:06043A0054203D200A00E1
:0C0440002E35B0430A002E30B0430A00F5
:020000040030CA
:010000001DE2
:00000001FF
