:020000040000FA
:04000000AFEF01F06D
:020004000000FA
:0A0006008A6AC00E936E280EEFEC1C
:1000100000F0300EBEEC00F00A0EF6EC00F0280EF8
:10002000BEEC00F00A0EF6EC00F0280EBEEC00F07C
:100030000A0EF6EC00F00F0EBEEC00F00A0EF6EC25
:1000400000F0010EBEEC00F0020EEFEC00F0060E28
:10005000BEEC00F00A0EF6EC00F01200106A116A15
:10006000206A216A306A316A406A416A556A566A72
:10007000506A516A410E106E8A0E116E000E206E8B
:10008000D86A3A323AC021F0D8B01080215011021B
:10009000F3CF31F0F4CF30F01002F3CF41F0F4CFD2
:1000A00040F020501102F3CF51F0F4CF50F0100285
:1000B000F3CF56F0F4CF55F031C013F0D86A30507A
:1000C00041205120126E405050205620116E55C0D4
:1000D00010F010500F0B336E7CEC00F010500F0B33
:1000E000346E7CEC00F010500F0B356E7CEC00F0A1
:1000F00010500F0B366E12000A0E1302F3CF31F0C0
:10010000F4CF30F01202F3CF41F0F4CF40F01102FF
:10011000F3CF51F0F4CF50F031C013F0D86A305023
:100120004120126E40505120116E50C010F012004C
:1001300010B0B0EC00F0120010B01200B0EC00F003
:1001400012000F6E0F38A6EC00F00F500F0B0B6E65
:100150000A0E0B60070F260F0B24CCEC00F01200E8
:10016000126E100E0C6E116EDE50CCEC00F0122EE2
:10017000FBD71200010EBEEC00F012000B6E0B3824
:100180000F0B8A6E8A98DDEC00F00B500F0B8A6E15
:100190008A98DDEC00F012000B6E0B380F0B8A6EA4
:1001A0008A88DDEC00F00B500F0B8A6E8A88DDEC3C
:1001B00000F00A0EF6EC00F0120000000000000053
:1001C000000000000000000000008A8A000000001B
:1001D000000000000000000000008A9A12000A6E71
:1001E000FA0EF6EC00F00A2EFBD71200086E083A61
:1001F0000F0E0814096EF00E081600EC01F0120044
:0A020000000E0806095AFDE2120084
:06020A00966A000E8D6EE5
:10021000000E016EFA0E006EAAEC01F09668AAECD0
:1002200001F0AAEC01F0AAEC01F0120077EC01F069
:1002300077EC01F084EC01F084EC01F077EC01F054
:1002400077EC01F084EC01F084EC01F0120084EC16
:1002500001F084EC01F077EC01F077EC01F084EC34
:1002600001F084EC01F077EC01F077EC01F0120082
:1002700084EC01F084EC01F077EC01F084EC01F007
:1002800084EC01F084EC01F077EC01F084EC01F0F7
:10029000120084EC01F077EC01F077EC01F077ECE0
:1002A00001F077EC01F077EC01F084EC01F077ECF1
:1002B00001F0120070EC01F070EC01F070EC01F054
:1002C00070EC01F070EC01F070EC01F070EC01F0FA
:1002D00070EC01F000001200EECFD8FF30361200B3
:1002E00091EC01F0320E206EA7EC01F01200966A3C
:1002F000000E8D6E010E206EA7EC01F09668330E95
:10030000206EA7EC01F01200966A000E8D6E330E7F
:10031000206EA7EC01F09668010E206EA7EC01F0AC
:100320001200966A000E8D6E010E206EA7EC01F091
:1003300096689568010E206EA7EC01F0D89083B006
:10034000D8803A32330E206EA7EC01F01200202E36
:0E035000FED71200000E0006015AFDE2120058
:02035E007F9C82
:1003600003EC00F07F8EB5EF01F005EC01F027EC17
:1003700001F038EC01F005EC01F027EC01F049EC5C
:1003800001F05AEC01F020EE17F000EE3AF02EECFE
:1003900000F004EE00F0000EF86E040EF76E1C0E76
:1003A000F66E050E066E0900F5CFEEFF062EFBD7A2
:1003B000040E24EE00F0B0EC00F0300E3524CCEC4E
:1003C00000F0300E3624CCEC00F004EE00F0000E0D
:1003D000F86E040EF76E280EF66E050E066E090016
:1003E000F5CFEEFF062EFBD7040E24EE00F09CECBA
:1003F00000F004EE00F0000EF86E040EF76E220E10
:10040000F66E050E066E0900F5CFEEFF062EFBD741
:0C041000040E24EE00F098EC00F0FFD782
:04041C0054203D200B
:0E0420000A002E35B0430A002E30B0430A0009
:020000040030CA
:010000001DE2
:00000001FF
