:020000040000FA
:0400000071EF00F0AC
:020004000000FA
:0A000600966A000E8D6E000E016E6A
:10001000FA0E006E5BEC00F096685BEC00F05BECB7
:1000200000F05BEC00F0120046EC00F046EC00F053
:100030004FEC00F04FEC00F046EC00F046EC00F026
:100040004FEC00F04FEC00F012004FEC00F046ECEB
:1000500000F04FEC00F04FEC00F04FEC00F046ECFD
:1000600000F04FEC00F04FEC00F012004FEC00F00D
:1000700046EC00F04FEC00F04FEC00F046EC00F0E6
:1000800046EC00F046EC00F04FEC00F0966A000EF3
:100090008D6E010E206E58EC00F096681200966A84
:1000A000000E8D6E300E206E58EC00F09668120037
:1000B000202EFED71200000E0006015AFDE21200AB
:1000C000383D3D3D3D3D3D3D3D3D3D3D3D3D3D445E
:1000D000383D3D3D3D3D3D3D3D3D3D3D3D3D3D444E
:0200E0000A0014
:0E00E2007F9C7F8E75EF00F003EC00F014ECB5
:0C00F00000F025EC00F036EC00F0FFD72B
:020000040030CA
:010000001DE2
:00000001FF
