:020000040000FA
:0400000092EF00F08B
:020004000000FA
:0A000600966A000E8D6E000E016E6A
:10001000FA0E006E8DEC00F096688DEC00F08DEC21
:1000200000F08DEC00F0120070EC00F070EC00F0CD
:100030007DEC00F07DEC00F070EC00F070EC00F076
:100040007DEC00F07DEC00F012007DEC00F07DEC2A
:1000500000F070EC00F070EC00F07DEC00F07DEC56
:1000600000F070EC00F070EC00F012007DEC00F09D
:100070007DEC00F070EC00F07DEC00F07DEC00F029
:100080007DEC00F070EC00F07DEC00F012007DECF7
:1000900000F070EC00F070EC00F070EC00F070EC30
:1000A00000F070EC00F07DEC00F070EC00F012005D
:1000B00069EC00F069EC00F069EC00F069EC00F02C
:1000C00069EC00F069EC00F069EC00F069EC00F01C
:1000D000120070EC00F0320E206E8AEC00F012007C
:1000E000966A000E8D6E010E206E8AEC00F0966806
:1000F000330E206E8AEC00F01200966A000E8D6EB0
:10010000330E206E8AEC00F09668010E206E8AECA9
:1001100000F01200202EFED71200000E0006015A39
:04012000FDE21200EA
:0C0124007F9C7F8E96EF00F003EC00F053
:1001300025EC00F036EC00F003EC00F025EC00F0CC
:0A01400047EC00F058EC00F0FFD788
:06014A00383D3D3D3D3D46
:100150003D3D3D3D3D3D3D3D3D44383D3D3D3D3DCD
:0C0160003D3D3D3D3D3D3D3D3D440A0020
:020000040030CA
:010000001DE2
:00000001FF
